:10000000D8880020F95E0000918F0100B15E0000E9
:10001000B15E0000B15E0000B15E000000000000B3
:10002000000000000000000000000000515000002F
:10003000B15E00000000000009500000B15E000049
:10004000D5500000D5500000D5500000D55000001C
:10005000D5500000D5500000D5500000D55000000C
:10006000D5500000D5500000D5500000D5500000FC
:10007000D5500000D5500000D5500000D5500000EC
:10008000D5500000D5500000D5500000D5500000DC
:10009000D5500000D5500000D5500000D5500000CC
:1000A000D5500000D5500000D5500000D5500000BC
:1000B000D5500000D5500000D5500000D5500000AC
:1000C000D5500000D5500000D5500000D55000009C
:1000D000D5500000D5500000D5500000D55000008C
:1000E000D5500000D5500000D5500000D55000007C
:1000F000D5500000D5500000D5500000D55000006C
:1001000001F0FF01102A2BDB10F0070F08D010F8C8
:10011000013B013A8B422DD010F0070F42B3F6D1CC
:10012000F0B441EA012141EA014122F007047FF0E5
:1001300000070023F0E80256083C85EA010586EA3C
:10014000010685FA47F5A3FA87F586FA47F6A5FA78
:1001500087F68EB9EED1F0BC01F0FF0102F0070284
:1001600032B110F8013B013A83EA010313B1F8D12F
:100170000020704701387047002D06BF3546033810
:10018000073815F0010F07D1013015F4807F02BF49
:10019000013015F4C03F0130F0BC0138704700BF9A
:1001A00081F0004102E000BF83F0004330B54FEA28
:1001B00041044FEA430594EA050F08BF90EA020F95
:1001C0001FBF54EA000C55EA020C7FEA645C7FEA28
:1001D000655C00F0E2804FEA5454D4EB5555B8BF4B
:1001E0006D420CDD2C4480EA020281EA030382EABC
:1001F000000083EA010180EA020281EA0303362D4E
:1002000088BF30BD11F0004F4FEA01314FF4801C20
:100210004CEA113102D0404261EB410113F0004F32
:100220004FEA03334CEA133302D0524263EB4303E9
:1002300094EA050F00F0A780A4F10104D5F1200E87
:100240000DDB02FA0EFC22FA05F2801841F10001E2
:1002500003FA0EF2801843FA05F359410EE0A5F1B6
:1002600020050EF1200E012A03FA0EFC28BF4CF0E7
:10027000020C43FA05F3C01851EBE37101F000459D
:1002800007D54FF0000EDCF1000C7EEB00006EEBAA
:100290000101B1F5801F1BD3B1F5001F0CD3490834
:1002A0005FEA30004FEA3C0C04F101044FEA44528B
:1002B00012F5800F80F09A80BCF1004F08BF5FEA12
:1002C000500C50F1000041EB045141EA050130BDF2
:1002D0005FEA4C0C404141EB0101013C28BFB1F504
:1002E000801FE9D291F0000F04BF01460020B1FA4F
:1002F00081F308BF2033A3F10B03B3F120020CDA22
:100300000C3208DD02F1140CC2F10C0201FA0CF0FF
:1003100021FA02F10CE002F11402D8BFC2F1200C64
:1003200001FA02F120FA0CFCDCBF41EA0C0190401A
:10033000E41AA2BF01EB0451294330BD6FEA040463
:100340001F3C1CDA0C340EDC04F11404C4F120024E
:1003500020FA04F001FA02F340EA030021FA04F360
:1003600045EA030130BDC4F10C04C4F1200220FAB7
:1003700002F001FA04F340EA0300294630BD21FAF5
:1003800004F0294630BD94F0000F83F4801306BFBB
:1003900081F480110134013D4EE77FEA645C18BFAF
:1003A0007FEA655C29D094EA050F08BF90EA020F46
:1003B00005D054EA000C04BF1946104630BD91EA3E
:1003C000030F1EBF0021002030BD5FEA545C05D141
:1003D0004000494128BF41F0004130BD14F5800480
:1003E0003CBF01F5801130BD01F0004545F0FE41F4
:1003F00041F470014FF0000030BD7FEA645C1ABF29
:10040000194610467FEA655C1CBF0B46024650EA5F
:10041000013406BF52EA033591EA030F41F400218B
:1004200030BD00BF90F0000F04BF0021704730B511
:100430004FF4806404F132044FF000054FF00001E6
:1004400050E700BF90F0000F04BF0021704730B5A7
:100450004FF4806404F1320410F0004548BF40427C
:100460004FF000013EE700BF42004FEAE2014FEAD1
:1004700031014FEA02701FBF12F07F4393F07F4FAC
:1004800081F06051704732F07F4208BF704793F0AF
:100490007F4F04BF41F40021704730B54FF46074C2
:1004A00001F0004521F000411CE700BF50EA0102C5
:1004B00008BF704730B54FF000050AE050EA01026E
:1004C00008BF704730B511F0004502D5404261EBDE
:1004D00041014FF4806404F132045FEA915C3FF41F
:1004E000D8AE4FF003025FEADC0C18BF03325FEABC
:1004F000DC0C18BF033202EBDC02C2F1200300FA6D
:1005000003FC20FA02F001FA03FE40EA0E0021FA91
:1005100002F11444BDE600BF70B54FF0FF0C4CF47F
:10052000E06C1CEA11541DBF1CEA135594EA0C0F31
:1005300095EA0C0F00F0DEF82C4481EA030621EA6C
:100540004C5123EA4C5350EA013518BF52EA0335A7
:1005500041F4801143F4801338D0A0FB02CE4FF059
:100560000005E1FB02E506F00042E0FB03E54FF089
:100570000006E1FB03569CF0000F18BF4EF0010E81
:10058000A4F1FF04B6F5007F64F5407404D25FEA7D
:100590004E0E6D4146EB060642EAC62141EA555130
:1005A0004FEAC52040EA5E504FEACE2EB4F1FD0C72
:1005B00088BFBCF5E06F1ED8BEF1004F08BF5FEAF0
:1005C000500E50F1000041EB045170BD06F00046A2
:1005D00046EA010140EA020081EA0301B4EB5C044F
:1005E000C2BFD4EB0C0541EA045170BD41F4801147
:1005F0004FF0000E013C00F3AB8014F1360FDEBF6C
:10060000002001F0004170BDC4F10004203C35DA47
:100610000C341BDC04F11404C4F1200500FA05F3CA
:1006200020FA04F001FA05F240EA020001F000426B
:1006300021F0004110EBD37021FA04F642EB0601E1
:100640005EEA430E08BF20EAD37070BDC4F10C040B
:10065000C4F1200500FA04F320FA05F001FA04F2CF
:1006600040EA020001F0004110EBD37041F10001BB
:100670005EEA430E08BF20EAD37070BDC4F12005C6
:1006800000FA05F24EEA020E20FA04F301FA05F22E
:1006900043EA020321FA04F001F0004121FA04F2D6
:1006A00020EA020000EBD3705EEA430E08BF20EAA6
:1006B000D37070BD94F0000F0FD101F000464000E0
:1006C00041EB010111F4801F08BF013CF7D041EA62
:1006D000060195F0000F18BF704703F00046520066
:1006E00043EB030313F4801F08BF013DF7D043EA37
:1006F0000603704794EA0C0F0CEA135518BF95EAED
:100700000C0F0CD050EA410618BF52EA4306D1D173
:1007100081EA030101F000414FF0000070BD50EA92
:10072000410606BF1046194652EA430619D094EA1C
:100730000C0F02D150EA013613D195EA0C0F05D106
:1007400052EA03361CBF104619460AD181EA03015A
:1007500001F0004141F0FE4141F470014FF0000012
:1007600070BD41F0FE4141F4780170BD70B54FF0AD
:10077000FF0C4CF4E06C1CEA11541DBF1CEA13552D
:1007800094EA0C0F95EA0C0F00F0A7F8A4EB05040F
:1007900081EA030E52EA03354FEA013100F0888006
:1007A0004FEA03334FF0805545EA131343EA1263CF
:1007B0004FEA022245EA111545EA10654FEA002684
:1007C0000EF000419D4208BF964244F1FD0404F53D
:1007D000407402D25B084FEA3202B61A65EB030599
:1007E0005B084FEA32024FF480104FF4002CB6EB56
:1007F000020E75EB030E22BFB61A754640EA0C00D6
:100800005B084FEA3202B6EB020E75EB030E22BF15
:10081000B61A754640EA5C005B084FEA3202B6EB56
:10082000020E75EB030E22BFB61A754640EA9C0015
:100830005B084FEA3202B6EB020E75EB030E22BFE5
:10084000B61A754640EADC0055EA060E18D04FEAA3
:10085000051545EA16754FEA06164FEAC30343EA43
:1008600052734FEAC2025FEA1C1CC0D111F4801F10
:100870000BD141EA00014FF000004FF0004CB6E709
:1008800011F4801F04BF01430020B4F1FD0C88BFA8
:10089000BCF5E06F3FF6AFAEB5EB030C04BFB6EBB3
:1008A000020C5FEA500C50F1000041EB045170BDA6
:1008B0000EF0004E4EEA113114EB5C04C2BFD4EBD3
:1008C0000C0541EA045170BD41F480114FF0000E57
:1008D000013C90E645EA060E8DE60CEA135594EAD3
:1008E0000C0F08BF95EA0C0F3FF43BAF94EA0C0FD6
:1008F0000AD150EA01347FF434AF95EA0C0F7FF44B
:1009000025AF104619462CE795EA0C0F06D152EA9E
:1009100003353FF4FDAE1046194622E750EA410682
:1009200018BF52EA43067FF4C5AE50EA41047FF493
:100930000DAF52EA43057FF4EBAE12E753B94AB963
:10094000002908BF00281CBF4FF0FF314FF0FF30D7
:1009500000F00CB8ADF1080C6DE904CE00F0CEF853
:10096000DDF804E0DDE9022304B07047704700BF02
:100970004FF0FF3C06E000BF4FF0010C02E000BF6B
:100980004FF0010C4DF804CD4FEA410C7FEA6C5C4E
:100990004FEA430C18BF7FEA6C5C1BD001B050EAF1
:1009A000410C0CBF52EA430C91EA030F02BF90EADC
:1009B000020F0020704710F1000F91EA030F58BF9B
:1009C000994208BF90422CBFD8176FEAE37040F0FD
:1009D000010070474FEA410C7FEA6C5C02D150EA9B
:1009E000013C07D14FEA430C7FEA6C5CD6D152EA56
:1009F000033CD3D05DF8040B704700BF844610461B
:100A000062468C461946634600E000BF01B5FFF719
:100A1000B7FF002848BF10F1000F01BD4DF808EDE9
:100A2000FFF7F4FF0CBF012000205DF808FB00BFBA
:100A30004DF808EDFFF7EAFF34BF012000205DF814
:100A400008FB00BF4DF808EDFFF7E0FF94BF012061
:100A500000205DF808FB00BF4DF808EDFFF7CEFF62
:100A600094BF012000205DF808FB00BF4DF808EDA1
:100A7000FFF7C4FF34BF012000205DF808FB00BF72
:100A80004FEA410C7FEA6C5C02D150EA013C0AD18A
:100A90004FEA430C7FEA6C5C02D152EA033C02D17C
:100AA0004FF0000070474FF0010070474FEA4102DD
:100AB00012F5001215D211D56FF47873B3EB6252B0
:100AC00012D94FEAC12343F0004343EA505311F0D7
:100AD000004F23FA02F018BF404270474FF0000069
:100AE000704750EA013005D111F0004008BF6FF0A7
:100AF000004070474FF00000704700BF2DE9F047FD
:100B000086468C460846089E154674461946002BB4
:100B100040F0C2808542B2FA82F245D94AB1C2F1B0
:100B2000200300FA02FC2EFA03F3954043EA0C0C72
:100B300094404FEA154EA8B2BCFBFEF8230C0EFB06
:100B400018CC08FB00F943EA0C43994528D9EB1867
:100B500008F1FF3704D2994502D9A8F102072B44C6
:100B6000A3EB0903A4B2B3FBFEFC0EFB1C330CFB8E
:100B700000F044EA0344A04214D92C190CF1FF33CD
:100B800004D2A04202D9ACF102032C44241A43EA55
:100B900007401EB1D440002334607360BDE8F08785
:100BA0004746DDE76346F1E792BB431B01214FEA6D
:100BB000154EAFB2B3FBFEFC200C0EFB1C330CFB3E
:100BC00007F840EA0343984562D9EB180CF1FF306F
:100BD00004D2984502D9ACF102002B44A3EB0803E0
:100BE000A4B2B3FBFEFC0EFB1C330CFB07F744EA7C
:100BF0000344A7424ED92C190CF1FF3304D2A7426B
:100C000002D9ACF102032C44E41B43EA0040C0E7E4
:100C1000C2F1200320FA03F1954090402EFA03F32D
:100C200003434FEA154EAFB2B1FBFEFC0EFB1C10A6
:100C3000190C0CFB07F841EA0041884504FA02F45C
:100C400022D969180CF1FF3004D2884502D9ACF1E1
:100C500002002944A1EB08019BB2B1FBFEFC0EFB94
:100C60001C110CFB07F743EA01439F420ED9EB1816
:100C70000CF1FF3104D29F4202D9ACF102012B44A6
:100C8000DB1B41EA004192E76046E3E76146F7E794
:100C90006046A3E76346B7E7834206D916B9002149
:100CA00008467BE7C6E900E0F9E7B3FA83F78FB9B6
:100CB000834201D3724508D8BEEB020460EB030304
:100CC00001209C461EB9002168E73846FAE7C6E9CC
:100CD000004CF8E7C7F1200CBB4022FA0CF41C438F
:100CE0002EFA0CF120FA0CF3B84001434FEA1449F4
:100CF0000EFA07F5B3FBF9F81FFA84FE09FB18306A
:100D00000B0C08FB0EFA43EA00439A4502FA07F27D
:100D100040D9E31808F1FF3004D29A4502D9A8F16E
:100D200002002344A3EB0A0389B2B3FBF9F809FBE1
:100D3000183308FB0EFE41EA03418E452CD9611899
:100D400008F1FF3304D28E4502D9A8F102032144F1
:100D500043EA0040A0FB0298A1EB0E014145CE46BC
:100D6000434602D306D14D4504D2B9EB020E68EBDF
:100D700004030138002EA6D0B5EB0E0261EB03018F
:100D800001FA0CFC22FA07F34CEA0303F940C6E926
:100D9000003198E74046C5E74346D9E710F8012BF4
:100DA00011F8013B012A28BF9A42F7D0D01A7047A8
:100DB000034613F8012B002AFBD1181A013870479B
:100DC0002DE9F04F476A97B014461D46CDE904451A
:100DD000239E83467FB9102011F01AFB0246CBF800
:100DE000240020B9A24BEA21A24812F05DFBC0E921
:100DF00001770760C760DBF82430196859B15A6879
:100E00004A60012393408B60584612F075F8DBF876
:100E1000243000221A602B1EB9BF23F00043059333
:100E200000233360059F944BBCBF01223260BB435B
:100E300019D1229A42F20F731360C7F313032343AD
:100E400000F0E285249B53B98C4B21E08C4B089336
:100E50000833249A1360089817B0BDE8F08F874BC9
:100E600008930333F5E7DDE90423CDE90C23DDE93D
:100E70000C0100220023FFF7D1FD804650B1229AD9
:100E800001231360249B13B1249A7E4B13607E4B85
:100E90000893E0E714AB019315AB00935846DDE9E6
:100EA0000C2312F0A9FAC7F30A560390002E7AD049
:100EB0000D9BCDF84C80C3F31303DDE90C0143F027
:100EC0007F5343F44013A6F2FF36194600226F4BBE
:100ED000FFF76AF960A3D3E90023FFF71DFB60A3C6
:100EE000D3E90023FFF762F9044630460D46FFF7C9
:100EF000A9FA5DA3D3E90023FFF70EFB02460B46D8
:100F000020462946FFF752F904460D46FFF7CEFD6D
:100F100000220746002320462946FFF789FD40B1FD
:100F20003846FFF78FFA22462B46FFF777FD00B9C8
:100F3000013F162F54D8564B03EBC703D3E90023C8
:100F4000DDE90C01FFF774FD00284BD0013F0023C1
:100F50001293149B9B1B5A1E45BFC3F101030693BA
:100F6000002300230A9254BF06930A93002F3BDB11
:100F70000A9B0F973B440A9300230B93209B092B5A
:100F800000F28A80052BC4BF043B2093209BA3F171
:100F90000203CCBF00240124032B00F28880DFE889
:100FA00003F02B383657DDE914631E4406F2324352
:100FB000202BC1BFC3F140039F4006F2124324FA25
:100FC00003F3D6BFC3F1200347EA030004FA03F09A
:100FD000FFF728FA0122A1F1F873013E139274E79A
:100FE0000123B5E71290B4E7069BDB1B06937B4217
:100FF0000B9300230F93C1E700230E93219B002B3B
:1010000058DC0123099399461A4621920CE00123EA
:10101000F3E700230E93219BFB1803F101090993C9
:101020004B46012BB8BF0123DBF82400002104222A
:1010300002F114059D4241D94160584611F01CFF50
:10104000089000283DD1134B02464FF4D571CBE6F2
:101050000123DFE7AFF3008061436F63A787D23FCF
:10106000B3C8608B288AC63FFB799F501344D33F97
:101070009A280200B12802000000F07F96280200A2
:101080008D2802006A280200692802000000F83F4B
:10109000300B0200252902000124002320930E9426
:1010A0004FF0FF330993994600221223ADE7012345
:1010B0000E93F5E7219B09939946B5E7013152005C
:1010C000B6E7DBF82430089A1A60B9F10E0F6FD832
:1010D000002C6DD0002F36DDA14B07F00F0203EB83
:1010E000C203D3E90034F805CDE910344FEA2714E0
:1010F00017D59C4BDDE90C01D3E90823FFF736FB3C
:10110000CDE9040104F00F044FF00308954D5CB9DC
:10111000DDE91023DDE90401FFF728FBCDE9040137
:101120002BE04FF00208F1E7E10709D5DDE91001F6
:10113000D5E90023FFF7F0F9CDE9100108F1010826
:1011400064100835E3E700F007817C42844B854D4D
:1011500004F00F0203EBC203D3E90023DDE90C0125
:10116000FFF7DAF9CDE90401241100234FF002085A
:10117000002C40F0E580002BD0D1129BDDE9044526
:10118000002B00F04C81784B002220462946FFF7C7
:101190004FFC002800F04381B9F1000F00F03F81BF
:1011A000099B002B00F3E480DDE90C34CDE9043425
:1011B000159B002B02DB0E2F40F342820E9A002A71
:1011C00040F067820B9CDDF818800025B8F1000F15
:1011D0000DD00A9B002B0ADD4345069AA8BF434663
:1011E000D21A06920A9AA8EB0308D31A0A930B9B09
:1011F0000BB30E9B002B00F0A682002C00F0A18206
:1012000029462246584611F09FFF039A014605469B
:10121000584611F0EFFE03990646584611F06CFE51
:101220000B9B1B1B0B9300F091820B9A3146584687
:1012300011F08AFF03900121584611F0C5FE0F9B63
:101240000446002B00F084821A460146584611F0ED
:101250007BFF209B012B044603DC049B002B00F04A
:101260007C820026236904EB830318691FF046F88B
:101270000F96C0F120000A9B184410F01F0000F0E8
:101280009182C0F12003042B40F38182069BC0F1C0
:101290001C00034406930A9B034480440A93069B64
:1012A000002B05DD03991A46584611F0A7FF03905D
:1012B0000A9B002B05DD21461A46584611F09EFF79
:1012C0000446129B002B00F07682039821461FF003
:1012D00064F8002880F26F82002303990A2258469E
:1012E00011F02CFE0E9B03907E1E002B00F05C8202
:1012F000002329460A22584611F020FE099B002BA4
:10130000054603DC209B022B00F35E82B8F1000F40
:1013100005DD29464246584611F070FF05460F9BF1
:10132000002B00F0D0826968584611F0A5FD0746F1
:10133000002840F07F820D4B024640F2EA2153E53F
:10134000E20706D5D5E90023FFF7E6F808F1010822
:101350000123641008350BE74FF002080DE700BFCA
:10136000300B0200080B02000000F03F25290200AC
:101370002046AD4B00222946FFF7CEF8CDE9040107
:10138000099C7E1E08F101084046FFF75BF8DDE985
:101390000423FFF7C1F8A54B0022FEF707FFA1F1D8
:1013A0005073CDE910011193002C3BD1DDE904010C
:1013B0009F4B0022FEF7F8FE02460B46CDE90423C0
:1013C000DDE91023FFF752FB002840F05781DDE9EB
:1013D000102101F10043DDE90401FFF729FB00289A
:1013E0003FF4E2AE00242546219BDDF820A0DE4339
:1013F0004FF000082146584611F07EFD002D00F008
:10140000A980B8F1000F05D0A84503D04146584641
:1014100011F072FD2946584611F06EFD9AE03E46E5
:101420004C46B1E7834B03EBC40353E90201089B2D
:101430001C440E9B002B4AD002460B4600207E49DE
:10144000FFF794F9DDE91023FEF7AEFECDE91001B8
:10145000DDF820A0DDE90401FFF728FB0546FEF7D3
:10146000F1FF02460B46DDE90401FEF79DFE303533
:10147000CDE9040102460B460AF8015BDDE91001E3
:10148000FFF7F4FA002865D1DDE904236B49002059
:10149000FEF78AFE02460B46DDE91001FFF7E6FA89
:1014A000002840F00D81A24500F0EA80DDE910013E
:1014B0005D4B0022FFF730F85B4BCDE910010022B5
:1014C000DDE90401FFF728F8CDE90401C2E7DDE911
:1014D0001023FFF721F8CDE91001DDF820A0A04688
:1014E000DDE90401FFF7E2FA0546FEF7ABFF02462D
:1014F0000B46DDE90401FEF757FE30350AF8015BC3
:1015000002460B46A245CDE904234FF0000223D149
:10151000494BDDE91001FEF749FE02460B46DDE9C5
:101520000401FFF7A3FA002840F0CA80DDE9102388
:1015300041490020FEF738FE02460B46DDE9040172
:10154000FFF776FA70B1C24608F1FF381AF8013C8D
:10155000302BF8D0374655E0334BFEF7DDFFCDE9B1
:101560000401BDE7DDE90C34CDE90434159B002B03
:10157000FFF628AE0E2F3FF725AE2E4B03EBC70329
:10158000D3E90034CDE90634219B002B02DAB9F10E
:10159000000F64D0DDE90445DDF820A0DDE9062375
:1015A00020462946FFF7E2F8FFF780FA0646FEF7E5
:1015B00049FFDDE90623FEF7AFFF02460B46204652
:1015C000294606F13004FEF7EFFD0AF8014B089CAE
:1015D000AAEB0404A14502460B4640F08280FEF7C8
:1015E000E5FDDDE9062304460D46FFF73FFA002836
:1015F00065D1DDE9062320462946FFF70FFA08B139
:10160000F3075CD40399584611F076FC00238AF85E
:101610000030229B01371F60249B002B3FF41BAC42
:10162000C3F800A017E400BF0000244000001C40E5
:1016300000001440300B02000000E03F0000F03FCB
:10164000A24B03EBC703D3E90034CDE90634219B59
:10165000002B9FDAB9F1000F9CDC7FF4C3AE9C4BEA
:101660000022DDE90601FEF757FFDDE90423FFF75D
:10167000F3F9044600287FF4B5AE3E462546B4E0B3
:10168000DDE90C34CDE90434159B002B01DB0E2F72
:10169000D6DD209A012A36DC139A82B303F2334353
:1016A0000B9CDDF81880069A1A4406920A9A0121CA
:1016B0001A4458460A9211F087FC054686E53E46D4
:1016C00053469A4613F8012D392A06D1089A9A42B0
:1016D000F7D10899302201360A701A7801321A704F
:1016E00038E77C4B0022FEF717FF00220023044658
:1016F0000D46FFF793F900283FF450AF82E7149BA3
:10170000C3F13603CCE70B9B09F1FF34A34208DB9E
:10171000B9F1000FA3EB04040EDBDDF818804B4693
:10172000C1E70B9B0F9A0B94E31A1A44DDF818805B
:101730000F924B460024B6E7069BA3EB0908002353
:10174000B1E7039E71E50B9A039970E5039672E584
:10175000209B012B17DC049BABB9059BC3F3130340
:101760009BB9059B23F00046360D360536B1069B26
:10177000013306930A9B01330A9301260F9B002B2A
:101780007FF470AD0F96012075E50026F6E73FF473
:1017900086AD069A1C331A4406920A9A1A44984453
:1017A0000A927CE50346F4E7099B002B2BDC209B87
:1017B000022B09DC27E0B9F1000F1DDC209B022B76
:1017C0001ADDCDF824903E46099B002B7FF40CAE29
:1017D00021460522584611F0B1FB01460446039804
:1017E0001EF0DBFD00287FF7FFADDDF820A03123E0
:1017F0000AF8013B0136FBE50E9BCDF824903E46EE
:10180000002B7FF483AD089F039821461EF0EEFC69
:1018100000F1300907F8019B089B099AFB1A9A42CC
:1018200040F3CB80039900230A22584611F086FB2F
:101830000390E9E72A690232920005F10C010C30AD
:101840001EF0BFFA01223946584611F0D7FC089B1A
:1018500003F1010ADDE9082313440A93049B03F012
:101860000103A8460B9305460AF1FF33214603986E
:1018700006931EF0BBFC4146099000F13009039825
:101880001EF08BFD2A4621460746584611F022FDE0
:10189000C268014602B3584611F02EFB002F3ADA17
:1018A00003990122584611F0A9FC214603901EF02D
:1018B00074FD002803DC29D119F0010F26D0B9F1FD
:1018C000390F1DD132E02846C1E700BF300B0200BE
:1018D00000001440000024400E9003981EF05DFDAF
:1018E0000E990C90584611F007FB0C9A5ABB209B9E
:1018F00053B90B9B43B9B9F1390F17D0002F05DD50
:10190000099B03F1310901E0002F2ADADDF818A064
:101910000AF8019B6EE5209B3B4304D1049B03F036
:101920000103002BBCD0B9F1390F36D1069F392302
:1019300007F8013BBA46013F1AF8013C392B5BD04E
:1019400001333B7056E5002F06DB209B3B4306D15D
:10195000049B03F0010313B9002AA1DCD6E7002A97
:10196000E1DC0A9B0AF8019C534557462FD00399A6
:1019700000230A22584611F0E1FAA84503904FF0DF
:1019800000034FF00A02414658460BD111F0D6FA37
:10199000804605460AF1010A66E7DDF818A009F15C
:1019A0000109B5E711F0CAFA2946804600230A2248
:1019B000584611F0C3FA0546ECE7099B002BC8BF57
:1019C0001F46089BD8BF01271F444FF0000803990A
:1019D0000122584611F012FC214603901EF0DDFC56
:1019E0000028A7DC02D119F0010FA3D1BA4617F8DD
:1019F000013D302BFAD0FDE4089BBB429AD1089AF6
:101A0000312301361370F5E4249B002B7FF41EAACA
:101A1000014BFFF73DBA00BF8D28020008B503480F
:101A2000034B43600BF088FE08BD00BF381E00204A
:101A3000351A00000B7802282ED000B589B00AD8DC
:101A400001282CD1052B0DD8052B08D8DFE803F091
:101A50000C10200C0C100338C0B206281FD809B097
:101A60005DF804FBF02BFAD102201CF0E1FEF6E752
:101A700003201CF0DDFE00201CF0DFFE01201CF026
:101A8000DCFE02201CF0D9FE18480FF0C1FBE6E78F
:101A900000201CF0CDFEE2E7154B19607047154B96
:101AA000079302238DF8043000238DF805308DF85C
:101AB00006308DF80730019A0692194663F300014B
:101AC00063F3410163F3820163F3C501012262F311
:101AD0008811082262F3522163F3DE4163F3DF7160
:101AE00006AA054815F0A2FFB9E700BF840500204B
:101AF000401E0020F80B0200500A02002DE9F041C0
:101B000094B00DF081F900285AD100201CF090FE0D
:101B1000FFF784FF3D4B0D934FF002088DF80480D2
:101B200000248DF805408DF806408DF80740019B94
:101B30000C93214664F3000164F3410164F38201D4
:101B400064F3C501032767F38811082666F3522161
:101B500064F3DE4164F3DF712D4D23460CAA284661
:101B600015F064FF4FF0FF324FF0FF3329480FF0BC
:101B700077FB294B13938DF804808DF805408DF881
:101B800006408DF80740019B1293214664F3000143
:101B900064F3410164F3820164F3C50167F38811C2
:101BA00066F3522164F3DE4164F3DF71234612AA27
:101BB000284615F03BFF00F037FA14B0BDE8F0817D
:101BC000164B079302238DF8043000238DF805305F
:101BD0008DF806308DF80730019A0692194663F3A6
:101BE000000163F3410163F3820163F3C501012244
:101BF00062F38811082262F3522163F3DE4163F33A
:101C0000DF7106AA024815F011FF7EE7340C0200CE
:101C1000500A020084050020500C02000C0C020047
:101C2000012900D0704710F0010FFBD0F0B585B04E
:101C300002AF534B186800230193009317225149B8
:101C400016F09CFB002820DB6C4600233B7102232E
:101C50007B7188B00DF1080C1CF1100254D00E20DD
:101C600022B1042802DD484BCCF8143000233B702D
:101C700002237B70002A55D0082802DD414BCCF8A6
:101C800018300CF11C0300214AE017F01DFA04681B
:101C90006D4688B002AB13F110022FD00C213AB17F
:101CA0000846042901DD394E5E61082800DD9C618B
:101CB0000B2926DD0C243AB10321397100217971F9
:101CC000B971F9717868186100216FF300016FF341
:101CD00041016FF382016FF3C501032363F38811A0
:101CE00004F47B7464F352216FF3DE416FF3DF7110
:101CF0000023274815F09AFEAD463AE06FF0004108
:101D0000CDE76FF01B04D6E76FF00040A8E701F1C4
:101D1000080505EB070E1EF808EC03F801EB01318E
:101D20000129F4D90D2827DD0E234AB10321397189
:101D300000217971B9710121F9717868CCF810002E
:101D400000216FF300016FF341016FF382016FF324
:101D5000C501032060F38811C3F3090363F3522123
:101D60006FF3DE416FF3DF710023094815F05EFE6B
:101D7000A5460C37BD46F0BD6FF01B03D5E700BF8D
:101D80004C1F0020840C0200B80C02009C0C0200C6
:101D9000A80A020090B587B000AF364C22463649FB
:101DA000012016F0BFFD012024F8040C48F6094379
:101DB00024F8023C102307F10802214617F0CDFE5B
:101DC00000233B7102237B7188B0EC461CF11002AA
:101DD00015D00E2022B1042802DD284BCCF8143097
:101DE00000233B7002237B70B2B1082803DD07F1AA
:101DF0000803CCF818300CF11C0300210AE06FF046
:101E00000040E7E701F118043C4414F8184C03F8CB
:101E1000014B01310129F5D90D2827DD0E234AB1E7
:101E20000321397100217971B9710121F971786843
:101E3000CCF8100000216FF300016FF341016FF344
:101E400082016FF3C501032060F38811C3F3090316
:101E500063F352216FF3DE416FF3DF710023084813
:101E600015F0E4FD00201C37BD4690BD6FF01B034C
:101E7000D5E700BF481F0020D80C0200E80C020084
:101E8000A80A0200F0B589B000AF1122022101209A
:101E900002F0BCFA5E4B186000282CDB08225D497A
:101EA00016F01CFA00286CDB5B4BFB6102233B71D4
:101EB00000247C71BC71FC717B68BB61214664F3BA
:101EC000000164F3410164F3820164F3C50103235B
:101ED00063F38811082363F3522164F3DE4164F352
:101EE000DF71234607F118024C4815F09FFD20468C
:101EF0002437BD46F0BD17F0E7F804686D4688B09A
:101F00006B4613F110020DD00C213AB1084604299A
:101F100001DD434E5E61082807DD9C610B292DDD44
:101F20000C2404E06FF00041EFE76FF01B043AB1BE
:101F30000321397100217971B971F97178681861DB
:101F400000216FF300016FF341016FF382016FF322
:101F5000C501012363F3881104F47B7363F35221F9
:101F60006FF3DE416FF3DF7100232C4815F05EFD47
:101F7000AD4617F0A9F800684042B9E76FF01B04BE
:101F8000D5E717F0A1F804686D4688B06B4613F1E9
:101F900010020DD00C213AB10846042901DD214E72
:101FA0005E61082807DD9C610B292DDD0C2404E00F
:101FB0006FF00041EFE76FF01B043AB10321397174
:101FC00000217971B971F9717868186100216FF396
:101FD00000016FF341016FF382016FF3C50101232B
:101FE00063F3881104F47B7363F352216FF3DE41D2
:101FF0006FF3DF710023094815F018FDAD4617F0A7
:1020000063F80068404273E76FF01B04D5E700BF38
:102010004C1F0020441F0020340D0200A80A0200BB
:10202000000D0200200D0200F0B5A3B002AFB848C9
:102030000CF098FD50BBFFF7ADFE002849D1FFF72B
:1020400021FF002868D1B34B7B6302233B7100233F
:102050007B71BB71FB717A683A63194663F30001C7
:1020600063F3410163F3820163F3C501032262F369
:102070008811082262F3522163F3DE4163F3DF71BA
:1020800007F13002A44815F0D1FC05E1A34BFB6138
:1020900002233B7100237B71BB71FB717A68BA61CB
:1020A000194663F3000163F3410163F3820163F3B3
:1020B000C501012262F38811082262F3522163F301
:1020C000DE4163F3DF7107F11802934815F0AEFCAF
:1020D000B1E7934BFB6702233B7100237B71BB711C
:1020E000FB717A68BA67194663F3000163F3410133
:1020F00063F3820163F3C501032262F388110822AE
:1021000062F3522163F3DE4163F3DF7107F178027A
:10211000814815F08BFC64E0824B7B6602233B71A7
:1021200000237B71BB71FB717A683A66194663F3D1
:10213000000163F3410163F3820163F3C5010322EC
:1021400062F38811082262F3522163F3DE4163F3E4
:10215000DF7107F16002704815F068FC41E016F08D
:10216000B3FF04686D4688B002AB13F110020DD0C6
:102170000C213AB10846042901DD6B4E5E61082846
:1021800007DD9C610B2931DD0C2404E06FF0004178
:10219000EFE76FF01B043AB1032139710021797127
:1021A000B971F9717868186100216FF300016FF35C
:1021B00041016FF382016FF3C501012363F38811BD
:1021C00004F47B7363F352216FF3DE416FF3DF712D
:1021D0000023514815F02AFCAD46544B186816F000
:1021E00005F84FF0FF308437BD46F0BD6FF01B049B
:1021F000D1E74F4BFB6402233B7100237B71BB7122
:10220000FB717A68BA64194663F3000163F3410114
:1022100063F3820163F3C501012262F3881108228E
:1022200062F3522163F3DE4163F3DF7107F1480289
:10223000394815F0FBFBD0E76FF0004C48E0002375
:102240003B7002237B70002A4AD1BCF10D0F5CDD8C
:102250000E2342B10320387100207871B87101203B
:10226000F871786808616FF300046FF341046FF34D
:1022700082046FF3C504032161F38814C3F30903D7
:1022800063F352246FF3DE446FF3DF7400232146BF
:10229000214815F0CBFBAD46244B18680023019371
:1022A0000093FF22234916F005FB0028FFF657AFE5
:1022B00000289ED000231F4A13546D463B71022311
:1022C0007B7188B002A911F11002B5D04FF00E0C4D
:1022D000002AB4D0BCF1040FB1DD174B4B61AEE75F
:1022E000BCF1080F01DD134B8B6101F11C030020D1
:1022F00008E000F1800606EB070E1EF880EC03F8FC
:1023000001EB01300128F4D99FE76FF01B03A0E730
:10231000211C0000C00D0200A80A0200580D020096
:10232000840D0200A40D0200E40D02004C1F0020E9
:10233000FC0D0200441E00200C0E02002DE9F04F9F
:1023400091B005920293134602F004020092C3F387
:10235000C20210F00303019340F0238207468A462D
:102360000132041D002847D027B1E31B0433534535
:1023700000F21A82029B5D1E019B04930693039355
:1023800000264FF0FF3B4FF00408C1460FB1029BFF
:102390002360531E0793002A40F35F81059B13F0CF
:1023A000020226D00120E11B8B081AB1B1F5007F93
:1023B00080F0008203990F2900F2FF81002F00F0C6
:1023C0006481DBB201F140026A4402F8103C02F879
:1023D00020BC002800F0558163F07F0301F140022A
:1023E0006A4402F8103C049B01330493039B0133BD
:1023F0000393043400223DE001F0070A5444CAF17B
:10240000080AB1E7002634E0002632E0002630E07A
:102410004FF00808C1462CE025292AD10BF1010B09
:1024200001264FF00408C14623E04729ECD82A29A9
:1024300012D32A39C9B2012000FA01F14FF6DA703D
:10244000014216D111F0625F40F0C48011F0010F1B
:1024500040F08E8000260CE0252903D10BF1FF3BD4
:10246000002606E001D9002603E0202901D0232917
:10247000CCD11D466B1C6978002900F01D81002E0F
:10248000CAD07A29BED84C29CFD34C392E2961D84D
:1024900001A050F821F000BF732400005525000072
:1024A0005525000055250000552500005525000044
:1024B0005525000055250000552500005525000034
:1024C0005525000055250000692500005525000010
:1024D0005525000055250000552500005525000014
:1024E000552500005525000055250000D525000084
:1024F000552500006925000069250000D52500004C
:10250000D5250000D52500007324000069250000B2
:1025100011240000552500007324000055250000FB
:1025200033260000692500003326000055250000F1
:10253000552500003D2600006125000069250000AA
:10254000552500005525000069250000552500008F
:102550005925000000268CE74FF00408C14688E7A3
:102560004FF00408C14684E729786C2924D000265E
:102570004444013CC8F100010C40204627B1E11B56
:1025800049448A45C0F01381002A5DD1B9F1040F96
:1025900000F08A80B9F1080F40F012811A990731D2
:1025A00021F0070101F108001A90D1E900010FB1F3
:1025B000C4E9000108345CE713F8021C6C2904D05C
:1025C00000264FF00408C146D2E700264FF0080865
:1025D000C146CDE729784C291BD01A99073121F043
:1025E000070101F108001A90D1E90001073424F035
:1025F000070447B1E61B0836564514D82D784C2DF4
:1026000014D0C4E90001083400264FF00808C14680
:102610002FE71A99073121F0070101F108001A90FC
:10262000D1E90001E2E76FF01B00B7E0C4E9000167
:10263000E9E700264FF00408C14699E73246002634
:102640004FF00408C14693E704461A9A111D1A91E7
:1026500012680292079A1D4698E65F4B029A9A42C8
:1026600004D35E4B9A420AD3002300E00023002BE0
:102670007FF494AE059B03F00202002093E6012351
:10268000F5E7069B01330693B0E610B10AF1010AA3
:10269000ACE6009B13B10AF1020AA7E60298FEF726
:1026A00087FB831C9A44A1E61A99081D1A900968B1
:1026B00007B121600434DCE6E31BB3F5806F80F0E2
:1026C000828097B100223A609B083B70009B83B1E7
:1026D000069BFB70049BBB701BBB019DDDF80C903F
:1026E000DDF810B0DDF808803BE05344A3F10800AA
:1026F00054E0069B7B70EDE701339842EDD903F17E
:1027000040026A4412F8101C12F9102C002AF3DA65
:1027100001F07F01E21B0132924557D304F8011BFF
:10272000EAE7019B0398E8E7009B3BB305F1400310
:102730006B4413F8203C04F8013B019EE31B334437
:1027400001339A4545D305F140036B4413F8103C1F
:1027500004F8013B3246414620461DF032FB34442A
:102760000135A94519D9BBF1000FDDD005F14003B2
:102770006B4413F9103C002BD6DAF1E705F1400366
:102780006B4413F8103C57F82380002247F82320AD
:102790004046FEF70DFB461CD0E7E01B11B0BDE83C
:1027A000F08F6FF00D00F9E76FF01B00F6E76FF0A8
:1027B0001B00F3E76FF01500F0E76FF01500EDE791
:1027C0006FF01500EAE76FF01500E7E76FF01B0008
:1027D000E4E76FF01B00E1E704070200042A0200AF
:1027E0002DE9F04F97B000AF8346BA613B61D7F84F
:1027F0008030C3F3C0033B62F96051B19BF80260C3
:10280000B14656B1D7F8803013F0010F11D1002333
:1028100004E013F003FFF860F0E700239BF80320C7
:102820007A6242B1D7F8802012F0020F22D1002242
:1028300002E00123F2E7002202B9EBB19BF800505D
:10284000AA00BA60DBF804207A610BEB8505BA694F
:10285000F2B1002B40F01281B9F1000F00F01D81A0
:10286000D7F8803013F0040F40F01B810020F8618E
:10287000064607E10122DFE7BB691BB13A69F96847
:1028800058469847FC6820465C37BD46BDE8F08F47
:10289000FC682BBBB9F1000F38D0D7F8803013F0AB
:1028A00004033B6127D04D4400233B6123E00444F3
:1028B000013501364E451AD22A7800235BF82220D2
:1028C0001946B86913F0BFFEBAF1000FEFD0D7F880
:1028D00088309845EBD22AF8180008F10108E6E79D
:1028E0000026B046C7F81CA0D7F884A0E2E7C7F8D6
:1028F0001080D7F81CA0D7F8803003F00503FB60E8
:102900004FF00008A146C7F81CB0A1E0C7F810902E
:10291000F1E700253B6A7BB9002D7BD0D7F88030EA
:1029200013F0010F7BD1FB68002B71D10223A9EBBF
:1029300003098AE00125EDE75946786913F0CAFEDC
:102940000028E9D06C46002387F82C30022387F852
:102950002D308AB0694611F1100239D012251AB112
:10296000042D01DDB34B4B61002387F8283002238F
:1029700087F829307ABB112D47DD122362B104207C
:1029800087F82C00002087F82D0087F82E00012002
:1029900087F82F00F86A08616FF3000A6FF3410AA5
:1029A0006FF3820A6FF3C50A022161F3881AC3F339
:1029B000090363F3522A6FF3DE4A6FF3DF7A0023D1
:1029C00051469D4815F032F8A546A9F102093CE0B0
:1029D0006FF00045C3E72B46082D01DD786988615B
:1029E0000C2B01DDC1F81CB001F12003002009E02F
:1029F00000F1300C07F1280EF4441CF830CC03F839
:102A000001CB01300128F3D9B5E76FF01B03B5E71F
:102A100001238CE7D7F8803013F0020F15D0002384
:102A200022461946B86913F00EFED7F8843053B128
:102A30003B69D7F88820934205D2D7F8842022F842
:102A4000130001333B610138814408F10108354628
:102A50007B6A984510D22E4616F802BB6B78FA694D
:102A600052F82340754B9C42FFF453AF744B9C4289
:102A7000FFF460AF00254DE74C4604E707F1440042
:102A80000023FB6118B14A4629461DF09AF94D44CE
:102A90004FF00008C7F804901EE00020F8610646D9
:102AA000F0E7FE6107F134000026EBE700253B6A02
:102AB00033BB002D3BD0D7F8803013F0010F26D068
:102AC000731C06F1300207F12801561806F8149C11
:102AD000DEB208F1010825467B6A98454AD22C46A9
:102AE00014F802AB95F801905BF82930534A9342F1
:102AF000DCD3534A934201D30025D8E70125D6E71A
:102B00005146786913F0E6FD0028D2D0E1E7D7F806
:102B1000803013F0040FDCD0FA69531C303207F117
:102B200028010A4402F8249CDBB2FB61D1E7D7F804
:102B3000803013F0020F09D0731C06F1300207F148
:102B40002801561806F8149CDEB2C2E7F869431C47
:102B500000F1300107F128028A1802F824AC02467D
:102B60000232D2B2FA6107F1580252FA83F303F843
:102B7000249CAEE7D7F804909BF8003087F85430D7
:102B80009BF80130334487F85530D7F8803013F084
:102B9000020F0ED1FB69C3F3470387F85730D7F80C
:102BA000803013F0010F06D113F0040F3FD1002342
:102BB00002E00023F1E7002387F85630DBF800003D
:102BC0003863786DCBF80000D7F810804246B968BA
:102BD0005846D7F818A0D047041EFFF654AE386BFD
:102BE000CBF80000C7F810804246F96907F13400BD
:102BF000D047002857DB04EB0008B96849447B6ADA
:102C000001EB4301D7F810904A46FB68591A284651
:102C1000D047041EFFF637AE08EB04054FF000085E
:102C20007E62C7F820B05646D7F884B01FE0FB6933
:102C3000C2E700BF400E0200580A0200040702006B
:102C4000042A02004FF0000A4A46012107F12C0035
:102C5000B047002829DB0544534622464946304602
:102C600013F0F1FC002822DB054408F101087B6A1F
:102C7000984511DA08F1300307F12802134413F8DC
:102C8000143C87F82C303A6A52F82340BBF1000F0D
:102C9000D8D03BF818A0D7E73A6900210846BB69AD
:102CA00098472C46EFE50446EDE50446EBE504467F
:102CB000E9E500BF08B503280AD840010830BFF392
:102CC0005B8F0A4B1B58BFF35B8F43B1002008BDDD
:102CD00016F0FAF9092303604FF0FF30F7E716F01A
:102CE000F3F9092303604FF0FF30F0E7501F002095
:102CF00008B5002003280AD843010833BFF35B8FCF
:102D0000064AD358BFF35B8F3BB10130F2E716F0B0
:102D1000DBF9172303604FF0FF3008BD501F002080
:102D200000B503465A010832124902EB010CBFF309
:102D30005B8F8A58BFF35B8FCAB1501EBFF35B8FA6
:102D40005CE8001F914204D14CE8000EBEF1000F78
:102D5000F6D1BFF35B8FE5D1012A06D1054A5901AF
:102D600002EB43130020505058605DF804FB1046FE
:102D7000FBE700BF501F002043010833064A1344FD
:102D8000BFF35B8F53E8000F013043E80002002AD5
:102D9000F8D1BFF35B8F7047501F002070B5044619
:102DA0000E461546FFF786FF00280FDB084B03EBA6
:102DB00044135B6833602DB163010833044A134444
:102DC00004332B606401024B185970BD0020FCE7EE
:102DD000501F002010B54FF0FF324FF0FF330E4868
:102DE0000EF016F9FFF784FF041E04DA0A480EF00D
:102DF00093F9204610BD2046FFF7BEFF074B600148
:102E000003EB441100221A504A6008301844043081
:102E10001CF00DF9EAE700BF9C040020501F0020C1
:102E200008B5034610460B4A4FEA431E02EB431C0B
:102E300042F80E10CCF8040050B1C26842B173469B
:102E40000833044A1344043340F2051213F069FCBA
:102E500008BD00BF501F0020014B1860704700BF25
:102E60000000002010B586B00446039004910021B4
:102E70000591009103A9064800F090F9059B049A7A
:102E8000934201DA0022E254059806B010BD00BF5B
:102E90004F6701002DE9F04383B00446084615460C
:102EA000238B13F0080F05D103F0070600230093CE
:102EB000019355E0012909D043F02003238385F3D2
:102EC0001188BFF36F8F03B0BDE8F08343F01003A8
:102ED0002383F4E7204613F0ABFE43E0D4F81490CC
:102EE0004A466946204613F0BCFE4FF00008238B8B
:102EF00003F00707B74269D0A268002A66D0012212
:102F000043F00803238385F31188BFF36F8F002AF2
:102F100064D1009B2BB14B463A466946204613F0DC
:102F200019FFB8F1000F02D034492046C0474FF0D6
:102F30002003EFF3118583F31288BFF36F8F238B88
:102F400023F008032383238B13F0100F4CD023F0BE
:102F5000100323830120268B06F007060028AED03D
:102F60000228B7D00028AAD0013804282AD801A303
:102F700053F820F0DD2E0000C52F0000892F00003F
:102F80009D2F0000B12F00002369D3F80080062197
:102F9000204613F023FE4FF00009A8E72369D3F879
:102FA00004800421204613F019FE4FF000099EE72B
:102FB0002369D3F808800521204613F00FFE4FF057
:102FC000000994E74FF00008C14690E7009A0AB163
:102FD000002295E7B8F1000F92D1B4E74A4639468E
:102FE000204613F003FE94E713F0200F04D023F0E3
:102FF000200323830220AEE70020ACE7836D0100AD
:1030000084460268002006E000EB8000013203EBFA
:103010004003A3F1300013780349C95C11F0040F99
:10302000F2D1CCF8002070475927020084460846A8
:10303000012226E09CF8003043F004038CF80030B5
:10304000F2B101301CE09CF8003043F008038CF82A
:103050000030F5E79CF8003043F010038CF80030A6
:10306000EEE79CF8003043F020038CF80030E7E7EF
:103070009CF8003043F040038CF80030E0E7002279
:1030800042B30378203B102BF9D801A151F823F06B
:10309000553000007F3000007F30000063300000BA
:1030A0007F3000007F3000007F3000007F30000064
:1030B0007F3000007F3000007F300000473000008C
:1030C0007F300000353000007F3000007F3000008E
:1030D000713000009CF8003003F04403442B00D012
:1030E00070479CF800306FF386138CF80030F7E7D8
:1030F0002DE9F84F05460C46934699460A9FD0782D
:10310000254B13F800A00AF0030A14F079F80646DC
:1031100015E0BAF1010F20D0D2B25732D2B207F87F
:10312000012D3246434628462146FDF707FCB542AD
:1031300074F1000415D34F4513D905460C464FF0E2
:1031400000083246434628462146FDF7F7FB092A88
:10315000DFD8D2B23032D2B2E1E7D2B23732D2B215
:10316000DDE79BF8003013F0200F03D0082E04D0C9
:10317000102E09D03846BDE8F88F9BF8023043F096
:1031800008038BF80230F5E79BF8023043F0100398
:103190008BF80230EEE700BF592702002DE9F04F0F
:1031A00091B006460D4691460393002499F800001D
:1031B000002800F0B982252808D009F10109294624
:1031C000B0470028C0F2B1820134EFE70023049336
:1031D00005930693079308930993494606A813F0AD
:1031E000EDFF02909DF8193013F0010F00F0978069
:1031F000039B1A1D03921F68002FC0F288809DF860
:10320000193013F0040F00F09C80039B1A1D0392E9
:10321000D3F800A0BAF1000FC0F28A800023079310
:1032200008939DF81A3003F007039DF81910C1F3B5
:10323000C301012B00F08E80022B00F0D380042B01
:1032400000F02481032B00F03B819DF8188018F0DA
:10325000030B40F03B819DF81B30253B532B00F2C4
:10326000CA81DFE813F04001C801C801C801C801E4
:10327000C801C801C801C801C801C801C801C80106
:10328000C801C801C801C801C801C801C801C801F6
:10329000C801C801C801C801C801C801C801C801E6
:1032A000C801C801C801C801C801C801C801C801D6
:1032B000C801C801C801C801C801C801C801C801C6
:1032C000C801C801C801C801C801C8018101C801FD
:1032D000C801C801C801C801C801C801C801C801A6
:1032E000C8015E016701C801C801C801C8016701C2
:1032F000C801C801C801C801BD018101A101C801FF
:10330000C8014D01C8018101C801C80181019DF8B2
:10331000183043F004038DF818307F426FE79DF9B1
:103320001830002B02DB4FF0FF3768E7079F66E796
:103330009DF819306FF341038DF819304FF0FF3AC3
:103340006CE713F0020F02D0DDF820A066E74FF023
:10335000FF3A63E7CB1E042B04D8DFE803F00B1D14
:1033600029353500039B1A1D03921B68DA17049355
:10337000059206E0039B1A1D03921B68DA1704935B
:103380000592012928D002297FF45FAFBDF91030E2
:10339000DA170493059258E7039B073323F00703DA
:1033A00003F108020392D3E90023CDE90423E8E7FF
:1033B000039B073323F0070303F108020392D3E9C9
:1033C0000023CDE90423DCE7039B1A1D03921B684D
:1033D000DA1704930592D4E79DF91030DA170493B5
:1033E000059232E7CB1E042B04D8DFE803F00B1F55
:1033F00035414100039B1A1D03921B68049300236F
:1034000005931EE09DF81B30632B07D0039B1A1D0C
:1034100003921B6804930023059312E0039B1A1D7B
:1034200003921B680493002305930AE0039B073370
:1034300023F0070303F108020392D3E90023CDE947
:10344000042301291CD002297FF4FFAEBDF81030FF
:10345000049300230593F8E6039B073323F0070347
:1034600003F108020392D3E90023CDE90423E8E73E
:10347000039B1A1D03921B68049300230593E0E746
:103480009DF81030049300230593DEE608290BD045
:10349000039B073323F0070303F108020392D3E9E8
:1034A0000023CDE90423D0E6039B073323F0070371
:1034B00003F108020392D3E90023CDE90423C4E613
:1034C000039B1A1D03921B680493BEE6029F3B46B2
:1034D0004A462946304613F0C7FE0028C0F225812F
:1034E0000444B94662E629462520B0470028C0F2C8
:1034F0001C810134D8460DF13E0A4FF000097FE0EF
:10350000DDF81090BAF1000F07DB514648461CF079
:1035100037FE09EB000AD84672E04846FDF748FC42
:10352000F7E7049B8DF82830D8460DF1290A0DF1F4
:10353000280965E018F0080F05D118F0100804D02C
:103540004FF0200801E04FF02B08049A059B002B58
:1035500002DB0492059308E0524263EB43030492BA
:1035600005934FF02D0800E0D8460DF13E0300937F
:103570000AAB06AADDE90401FFF7BAFD8146BAF1FC
:10358000000F6CDB0DF13E03A3EB09039DF818203F
:103590006FF386128DF818209A4563D9AAEB0303BE
:1035A00007930DF13E0A2BE0049828B9D846DFF8BE
:1035B00080A1AAF1050923E00DF13E0300930AABB7
:1035C00006AA0021FFF794FD81469DF81A3043F0CA
:1035D00010038DF81A3078238DF81B30D846CEE7CB
:1035E0002246049906A813F020FED8460DF13E0AA3
:1035F0004FF0000904E0D8460DF13E0A4FF00009F3
:10360000B9F1000F00F08D80AAEB0902B8F1000FAC
:1036100000D001329DF81A1011F0100F25D002329F
:10362000079B134411F0400F01D0089A1344002F58
:1036300031DDFF1A9DF8183013F0040F2BD113F071
:10364000400F17D0B8F1000F17D029464046B047B9
:1036500000286ADB0134D8464FF0300B0FE00DF143
:103660003E0ACDE70DF13E0ACAE711F0080FD7D0A8
:103670000132D5E74FF0200B01E04FF0300B3B4615
:103680005F1E002B07DD29465846B04700284CDB5B
:1036900001343B46F4E7B8F1000F05D02946404617
:1036A000B047002841DB01349DF81A30C3F3001203
:1036B000C3F3C0031A4305D029463020B047002881
:1036C00033DB01349DF81A3013F0100F06D0294671
:1036D0009DF81B00B047002827DB0134079B03F14E
:1036E000FF38002B07DD29463020B04700281CDBBF
:1036F00001344346F3E753464A462946304613F021
:10370000B3FD002811DB0444002F07DD29462020EB
:10371000B047002809DB0134013FF5E7DDF80890E8
:1037200044E5DDF8089041E5204611B0BDE8F08F92
:10373000FD0E02000CF0CEB938B505460B4C00E08A
:1037400010340B4B9C420FD263685B79002BF7D08F
:103750002946204614F0F2F80028F1D023681B68AF
:10376000294620469847EBE738BD00BFC80A02004B
:10377000E80A020070B506460D46084C04E02A46E9
:103780003146204698471034054B9C4204D22368AA
:103790009B69002BF3D1F6E770BD00BFC80A020099
:1037A000E80A02002DE9F041074605460AE007EA6B
:1037B0000807144B03EB06135B68042219682046C4
:1037C00000F0A4FAD5B195FAA5F6B6FA86F60D4C36
:1037D00004EB06140123B3406FEA030825EA03054E
:1037E000237B002BEED03301064AD3581B69002BF4
:1037F000DDD0204698470028E4D1D8E73846BDE818
:10380000F08100BFC80A02002DE9F04180460F4652
:10381000204BBFF35B8F53E8005F6A1C43E8002135
:103820000029F8D1BFF35B8F002D2FD11A4C002651
:1038300007E0636804221968204600F067FA013641
:103840001034164B9C4213D2237B002BF8D02368F4
:10385000DB680BB12046984723681B69002BE8D032
:10386000204698470028E4D00123B3401D43E6E7F3
:10387000B8F1000F0BD055B12846FFF793FF05466E
:10388000002FF8D00A2014F05FF8F4E7002528464E
:10389000BDE8F081E41F0020C80A0200E80A020027
:1038A00008B5064B186018B1054B1B68092B00DCE6
:1038B00008BD04480DF0ACFCFAE700BFD81F00209B
:1038C000E01F00206C05002008B502480DF0A0FCA8
:1038D00008BD00BF6C05002030B589B000220F493B
:1038E0000F481CF072F80F4D00220023CDE906238B
:1038F000002404940E2303930294019400940A4B31
:103900004FF44072094928461BF053FB08492846EA
:103910001BF03BFB204609B030BD00BFC93800009A
:10392000400B0020B80600206D3C0000B84200208B
:10393000000F0200014B53F8200070471C0F0200DB
:1039400048B108B5054A1060054B1960084600F0FB
:1039500003FC002008BD6FF0150070470400002034
:10396000D41F002008B5054B1B781BB1034B012267
:103970001A7008BD02480DF04BFCF7E7A442002086
:103980006C0500200D4BBFF35B8F53E8001F013126
:1039900043E80012002AF8D1BFF35B8F00B97047EB
:1039A000074BBFF35B8F53E8001F013943E8001258
:1039B000002AF8D1BFF35B8FF1E700BFDC1F0020C6
:1039C000E01F0020064B00200146BFF35B8F53E849
:1039D000000F43E80012002AF9D1BFF35B8F704754
:1039E000DC1F002038B5FFF7EDFF0546094C00E06D
:1039F0001034094B9C420BD263685B79002BF7D0E3
:103A000023685B68002BF3D0294620469847EFE7F0
:103A100038BD00BFC80A0200E80A0200034B18685C
:103A20000028D4BF00200120704700BFDC1F002009
:103A300010B5044C0449204613F0DAFD034B1C601A
:103A400010BD00BF8C030020080F0200D01F002013
:103A500008B50023054A1370054A13604FF400416E
:103A60000448FFF76DFFFFF7E3FF08BDA542002004
:103A7000DC1F00204179010008B50146014813F020
:103A800079FF08BD8C03002008B5024813F088FEBA
:103A900008BD00BF8C03002008B50146024B186822
:103AA00013F06EFF08BD00BFD01F002008B502480C
:103AB00013F06AFF08BD00BF8C03002010B582B070
:103AC00000220023CDE90023284B187808B902B062
:103AD00010BD684613F070FF044688B1244BBFF355
:103AE0005B8F53E8001F013943E80012002AF8D128
:103AF000BFF35B8F2046FFF71FFE2046FFF7CCFF8A
:103B0000FFF78CFF58B91B4A1368516813F57A7395
:103B100041F1000113605160FFF7C8FFD7E71BF0C8
:103B200011FF4A0142EAD06243011B1A62EB010213
:103B3000920042EA93729B001B1842EB0102D200F2
:103B400042EA5372C3F3103343EA4243D20B0948AB
:103B5000016840685B1A62EB000240F2E9318B4277
:103B600072F10002CFD3FFF73DFFCCE7A442002063
:103B7000E01F0020380B00200F4B1B7803B170476B
:103B800010B500210120FFF73FFE0C4C00E010347F
:103B90000B4B9C4208D263685B79002BF7D02368FB
:103BA0009B6820469847F2E7FFF788FF0028FBD183
:103BB000014B01221A7010BDA5420020C80A020064
:103BC000E80A020010B582B01B4BBFF35B8F53E8CD
:103BD000002F511C43E800100028F8D1BFF35B8F81
:103BE000164B1B7863B9164B1B68BBB1C2B10A2ACE
:103BF00014D114481BF0F5FE13480DF009FB0DE03D
:103C00004FF02003EFF3118483F31288BFF36F8F1B
:103C1000FFF754FF84F31188BFF36F8F02B010BD1C
:103C200000220023CDE900234FF400420023054881
:103C30000EF0D0FAF2E700BFE01F0020A5420020FE
:103C4000D81F0020400B00206C05002010B5044652
:103C5000044B1B689847A0602146034813F0B0FE50
:103C600010BD00BF040000208C0300202DE9F041AE
:103C700000210846FFF7C8FD804640B140F2676664
:103C800000270EF033F8FFF70BFE002515E04FF08C
:103C9000FF364FF0FF37F4E74046FFF783FD8046DD
:103CA00070B94FF0FF364FF0FF3709E02C4632462F
:103CB0003B4609480DF0D4FA2546B8F1000FEBD188
:103CC000FFF7FCFE04460028F6D1002DEED00021BF
:103CD0000846FFF74FFDEAE76C0500200248034B5A
:103CE000C01AC008704700BFC80A0200500A02008C
:103CF00010B50C46FFF7F2FFA04203D9024B53F870
:103D0000340010BD0020FCE7500A020008B5094B42
:103D1000C31A1B110133D0F804C08CF80430436877
:103D20009A7143681960436801225A71FFF71AFEBD
:103D300008BD00BFC80A020000B589B0059206930D
:103D40000023079362B1074A0C9B02930B9B0193DC
:103D50000A9B009305ABFEF743FD09B05DF804FB39
:103D60000022F1E7D17901000EB400B584B001461C
:103D700005AB53F8042B0393002000900348FFF792
:103D80000DFA04B05DF804EB03B07047F17B01005D
:103D900030B585B011F0440F05D01A4B1C6834B90A
:103DA000002005B030BD1849FFF7DEFFF9E7174BDB
:103DB0001968B2FBF1F1B1FBF4FC154AA2FB0C321D
:103DC000D20A4FF4616E0EFB12CE124BA3FB0E53C0
:103DD0005B0904FB1C114FF47A7C0CFB01F1B1FB75
:103DE000F4F504FB15110CFB01F1B1FBF4F10291A8
:103DF0000195C3EB0311AEEB810100910649FFF77A
:103E0000B3FFCEE7EC1F0020380F0200E81F0020B0
:103E1000C5B3A29189888888440F020061B108B5B2
:103E20002AB1064A52F8232012B9054A00E0044A92
:103E30000449FFF799FF08BD704700BFE40F020077
:103E4000600F0200680F02002DE9F0410546904620
:103E50001E46069F81B900242EB1324610492846DD
:103E6000FFF782FF0444B7B1B8F1000F0DD0079BF4
:103E7000042B13D00B4909E00B4B079A53F822206F
:103E80000A49FFF771FF0446E6E706493A46284625
:103E9000FFF76AFF04442046BDE8F0810449F5E7D6
:103EA000800F0200700F0200F80F0200780F02006E
:103EB0006C0F02002DE9F04F85B005460C46164602
:103EC00003939DF8408001F0020B01F0010AC1F359
:103ED000C00913F07BFDD8B1024612492846FFF70E
:103EE00043FF0746BBF1000F14D142465146284616
:103EF00013F03EFECDF804800F9B00930E9B3246DC
:103F000049462846FFF7A0FF384405B0BDE8F08FCA
:103F10000027E7E7039A21462846FFF739FF0744C1
:103F2000E3E700BF840F020011F0100F0BD108B5BA
:103F300011F0200F03D00449FFF716FF08BD034915
:103F4000FFF712FFFAE770475025020034260200FF
:103F50002DE9F04105460F46164698460699FFF7AB
:103F6000E3FF0024444505DA24492846FFF7FCFE18
:103F70000134F7E7002409E020492846FFF7F4FE62
:103F80000BE01F492846FFF7EFFE01340F2C0CDC35
:103F9000002C02DD14F0070FEED0B442F1D23A5DEE
:103FA00018492846FFF7E0FEEFE717492846FFF7D4
:103FB000DBFE002409E011492846FFF7D5FE0BE09F
:103FC00012492846FFF7D0FE01340F2C13DC002CD9
:103FD00002DD14F0070FEED0B44207D23A5D0C4B6D
:103FE0009B5C13F0970FEBD12E22E9E7034928469B
:103FF000FFF7BAFEE8E7BDE8F08100BF9C1E0200B3
:10400000900F0200880F0200940F0200980F020028
:10401000592702002DE9F04184B004469DF828504C
:104020000B9F0D9E95B9012B1BD017484FF0000830
:1040300027B13B462246154912F01CFBAEB9EDB93B
:10404000204613F0C8FD04B0BDE8F081029501934D
:1040500000920B4600220E99FFF72CFF80460C4879
:10406000E6E70B484FF00008E2E70E9B009343465B
:1040700032460C99204613F093FDE0E72A460E994C
:10408000204613F081FDDBE7297C0100617B010004
:10409000F17B01002DE9F04186B005460C4617463C
:1040A000D1F808800E88C6F382160878C0F3C200E3
:1040B0004B6833B1114A9B1A43F3CF01002918DA38
:1040C0000023224652F8101BC1F349216088C0F337
:1040D000CB00541801B90022049703900294019276
:1040E0000096002241462846FFF794FF06B0BDE83F
:1040F000F081FFF7FDFD0346E3E700BF500A020031
:1041000070B582B00446056842F20F738B4228BF37
:104110000B460E4A0521684612F043FB06466368CB
:104120005B680B220A49284613F00DFD63685B6843
:1041300032466946284613F006FD63685B681B2219
:104140000449284613F0FFFC02B070BDB40C020015
:10415000B80F02009C0F0200074B01221A6004E016
:104160004008054A13685B001360044B9842F7D877
:10417000034B1860704700BFE81F002040420F004B
:10418000EC1F0020034B01221A70034B034A1A60F4
:10419000704700BFA6420020182000201C200020ED
:1041A000014B1960002070470420002008B518B9A1
:1041B000074B00221A7008BD064B1B7823B141F251
:1041C00088301BF0C3FBF6E7052013F03CFDF2E757
:1041D000A6420020A742002038B504460A4B01221F
:1041E0001A700A4B1B782BB938BD651E2046FFF7A5
:1041F000DDFF2C4600200CF00BFB0028F4D0024B16
:104200001B78002BF1D1EFE7A6420020A742002047
:10421000F8B506460D4604270DE02A463146002033
:104220000CF092FA044614E03846FFF7D5FFDCB9EB
:10423000114B1B78C3B1114B1B78002BEDD10CF047
:10424000F7FA2A46314600200CF07EFA04460CF0BC
:10425000FBFA002CE8D1084B1B78002BE7D0013F7C
:104260003846FFF7A3FFE2E714B9034B1B7803B905
:104270002C462046F8BD00BFA6420020A7420020E1
:1042800008B5034B01221A70024813F0A4FC08BDC4
:10429000A74200203810020008B50248FFF730FF9F
:1042A00008BD00BF3810020010B50C46044B18685A
:1042B000FFF740FB03460F2221460248984710BDF6
:1042C000042000203810020070B506460D46002478
:1042D00005E0315D044883685B6898470134AC426F
:1042E000F7D3284670BD00BF2C080200014B1960AF
:1042F000002070474C20002008B5034B01221A70A3
:10430000024813F068FC08BDA84200208410020097
:1043100008B50248FFF7F4FE08BD00BF8410020094
:1043200010B50C46044B1868FFF704FB03460F2238
:1043300021460248984710BD4C20002084100200FE
:1043400003B1704710B582B00446009300220023E9
:104350000A4916F079FC04F15C001AF001FF04F13F
:1043600074001BF039FA214604985C301AF021FFE2
:10437000204616F05BF802B010BD00BFD17E0100F0
:10438000F0B583B006460F461446FEF723FD051E22
:1043900037DB14B9731E012B1DD901ABA2B2F9B2E0
:1043A000B0B203F067F8061E1DDB0023019A13600C
:1043B000019883655C301AF0D3FE019874301BF0CD
:1043C0000BFA062C19D0104A01992846FEF728FD51
:1043D000284603B0F0BD022F03D0012FDDD1062403
:1043E000DBE71124D9E7284612F0ABF914F06CFE94
:1043F000764206604FF0FF35EAE7019816F016F8AE
:10440000E1E74FF0FF35E3E794100200F8B5054609
:104410000E4617460E4C0F4B9C4211D22368AB42FE
:1044200000D05BB9A3683A4631462846984728B180
:10443000E3683A46314628469847F8BD1034EAE723
:1044400014F042FE6A2303604FF0FF30F5E700BF2F
:10445000300A0200500A020030B583B0044616F05C
:1044600025F8051E08DBB4F88830C3F38113022B4E
:1044700009D0002003B030BD14F026FE6D42056067
:104480004FF0FF30F6E7236800930022002307492E
:10449000204616F0D9FB041E01DB0020EAE714F0E9
:1044A00013FE644204604FF0FF30E3E7D17E010069
:1044B000F0B585B00446002302934FF4C0360027C0
:1044C000CDE9006716F045FA051E0CDB2368009362
:1044D000002200230B49204616F0B6FB041E09DB20
:1044E000002005B0F0BD14F0EFFD6D4205604FF007
:1044F000FF30F6E714F0E8FD644204604FF0FF304F
:10450000EFE700BFD17E010030B583B0044616F05E
:104510007EF8051E0BDB0094002200230B49204689
:1045200016F0B8FA041E09DB002003B030BD14F009
:10453000CBFD6D4205604FF0FF30F6E714F0C4FD8F
:10454000644204604FF0FF30EFE700BF41430000DA
:104550002DE9F84304460F461646FEF73BFC051EC0
:10456000C0F287804FF0FF38C146A36D13F0020FF1
:1045700002D04FF00008C14604F15C0042464B46B1
:104580000CF008FE044658B35C301AF02FFE20B140
:1045900090F8373013F0020F34D1B4F8883013F4A8
:1045A000806F43D123F40073A4F8883087B17EB1C3
:1045B0003268082A28BF082204F1240138461BF07B
:1045C00000FCA38C012B41D0022B42D11823336075
:1045D000294A21462846FEF723FC2846BDE8F883F1
:1045E000284612F0AEF859EA080806D114F06CFD1E
:1045F0000B2303604FF0FF35EFE714F065FD162342
:104600000360F7E7A36D43F00103A365284612F0AA
:1046100098F8204613F03FFC204615F014FF14F0E4
:1046200053FD712303604FF0FF35D6E714F04CFDC6
:1046300071230360284612F084F8204613F02BFC07
:10464000204615F000FF4FF0FF35C6E70823336022
:10465000BEE7284612F075F814F036FD8623036095
:10466000204613F018FC204615F0EDFE4FF0FF3504
:10467000B3E74FF0FF35B0E7941002002DE9F04F9B
:104680008BB004460F469046DDF85090DDF854A0FC
:104690004FF0FF304FF0FF31CDE908010A220792B9
:1046A00013F0400F03D1A36D13F0020F34D0002597
:1046B0002E46089509952368009300220023284977
:1046C000204616F0C1FAB0F1000B33DBB9F1000F50
:1046D00038D023680493DDE90823CDE902230023C1
:1046E0000193CDF800A04B4642463946204616F0CD
:1046F00081FA00280DDA07AB0293DDE90823CDE942
:1047000000232A4633460146204613F039FC002890
:10471000DCDA0BB0BDE8F08F002308AA05212046A3
:1047200003F082F84FF4A02000211BF015F9054694
:104730000E46C0E714F0C8FCCBF1000303604FF055
:10474000FF30E6E723680293DDE90823CDE9002383
:10475000002342463946204616F0EAF9C9E700BF71
:10476000D17E010070B5154600231C4600E00133E0
:10477000022B0DD803EB83001B4901EBC00191F81C
:10478000242012F0010FF2D1174C04EBC004EEE725
:10479000E4B1FEF71FFB061E1FDB94F8243043F044
:1047A000010384F82430256240F6CD420023C4E999
:1047B00004234FF0FF324FF0FF33C4E906230B4AC6
:1047C00021463046FEF72CFB304670BD14F07CFCD1
:1047D000022303604FF0FF36F6E714F075FC1C234C
:1047E00003604FF0FF36EFE7780B0020D410020093
:1047F00070B505464FF02003EFF3118683F312885E
:10480000BFF36F8F0E4B1C680DE0A2683AB10D4BE1
:104810001B7D03EB43030C4911F82300904723460B
:10482000246804B123B12CB1002DEED06268EDE70D
:104830001C46F8E786F31188BFF36F8F70BD00BF89
:10484000682000208C3700205C20002008B5064B33
:1048500023B14178007814F04AFC08BD002383F3AB
:104860001188BFF36F8FF8E7EF90010070B50E4B22
:104870001C7D21460D4814F031FB00B970BD650068
:1048800004EB44000A4E06EB8000FFF7DFFF002038
:10489000FFF7AEFF2B19990006EB8303002272503D
:1048A0005A609A60EAE700BF8C3700207020002031
:1048B0005C200020F8B50546384B1C7D4FF02003E6
:1048C000EFF3118683F31288BFF36F8F04EB44027A
:1048D000334B13F82230002B39D0324B03EB820CD0
:1048E0002F4F4FEA820E07EB820393E807008CE814
:1048F0000700002307F80E3086F31188BFF36F8F8F
:1049000004EB4403274A12F82330002B44D0B5F1BE
:10491000FF3F2BD10CF0D0FE0120FFF769FF2146AD
:10492000214814F0F7FA214B5BB11E4A04EB440313
:1049300002EB830304EB4404597812F8240014F0CA
:10494000CEFBFFF793FF0DF0B9F80120F8BD01464B
:10495000204600F031F80028CED004EB4401114B82
:1049600003EB810307C883E80700C5E704EB4402B3
:104970000C4B03EB82039868410CC0030C4BC0182E
:104980000C4A4FF0000341F10001FBF7D7FF012172
:10499000281A1AF0A8FFBDE70020D7E78C370020BF
:1049A000502000205C20002070200020DF900100BB
:1049B0003F420F0040420F002DE9F04182B00E4609
:1049C00001A900F045F8441E24B207E0B6F1FF3F0C
:1049D00033D08044B04530D9013C24B2002C2BDBCD
:1049E000019B04EB440203EB8205697813F8220073
:1049F00014F0A3FA0028EFD16868410CC003114FEE
:104A0000C019114A4FF0000341F10001FBF796FF76
:104A10008046AB68590CDB03D8190B4A4FF00003F2
:104A200041F10001FBF78AFF084B1B68B3F1FF3F20
:104A3000CCD08342CAD8CFE70025284602B0BDE8D3
:104A4000F08100BF3F420F0040420F0008000020ED
:104A500008B9024B0B600020704700BF181102001C
:104A600008B502480FF046F908BD00BF1811020052
:104A7000B0F5680F17D00CD840F6BA63984214D03E
:104A8000B0F5683F13D03A2801D0012070470020CC
:104A90007047094B98420CD0084B984201D0012036
:104AA00070470020704700207047002070470020AA
:104AB00070470020704700BF3A00003A2C5F5CA9A5
:104AC000E8B108B54268B2F5683F07D00F498A429D
:104AD0001AD000680CF020FB002008BD03680022FB
:104AE000BFF35B8F53E8001F012903D143E8002087
:104AF0000028F7D1BFF35B8F04D11046EDE76FF4C8
:104B0000E04070470248E8E70248E6E72C5F5CA90E
:104B1000E98FFFFFEA8FFFFF30B308B54268B2F5B7
:104B2000683F0CD012498A421CD000684FF0FF3217
:104B30004FF0FF330CF06CFA88B10E480FE00368B9
:104B40000122BFF35B8F53E8001F002903D143E824
:104B500000200028F7D1BFF35B8F01D1002008BDF2
:104B60000448FCE70448FAE76FF4E040704700BFF0
:104B70002C5F5CA9E98FFFFFEA8FFFFF10B50446A9
:104B8000B0B16368B3F5683F11D0B3F5680F0ED0CC
:104B90000D4A93420BD013F4686F0ED123680022A4
:104BA0001A605A609A60DA601A61074B636010BD40
:104BB000064B5B6806489847E3E7214605481AF02C
:104BC000A7F900232360F0E72C5F5CA9080300200D
:104BD000201102007425002010B5044668B36068F7
:104BE000B0F5683F28D0B0F5680F25D0174B984234
:104BF00028D0FFF73DFFC0B14FF0FF324FF0FF3339
:104C0000214613480CF02AF908B923681BB9114B47
:104C10005B6811489847236800221A605A609A60BE
:104C2000DA601A614FF46863636020681AF0FFF974
:104C3000636843F03A03636010BD064B5B68074846
:104C40009847CCE72368002BD3D1D5E72C5F5CA92C
:104C500074250020080300204811020020110200E2
:104C600008B540231422044904481AF043F90449C2
:104C700004480FF005F908BD7420002074250020B9
:104C8000781102008C110200014910220A6070475D
:104C900010ED00E072B6404080F31188BFF36F8FD3
:104CA000BFF34F8F30BF62B6BFF36F8F704700BF47
:104CB00072B6494081F3118820BF80F3118862B633
:104CC000704700BF2DE9F04182B000AF0446D0F834
:104CD00000E0D0F804C086686D468AB06B4613F1D8
:104CE000100200F0F38014218AB10846042903DD84
:104CF000DFF80882C3F81480082801DDC3F818E043
:104D00000C2801DDC3F81CC0102800DD1E62132929
:104D100040F3DF804FF0140C3AB1052139710021C6
:104D20007971B971F9717868186100216FF3000128
:104D30006FF341016FF382016FF3C501012363F348
:104D400088110CF47D7C6CF352216FF3DE416FF31C
:104D5000DF7100236A4812F069FEAD46D4F80CE01A
:104D6000D4F810C066696D468AB06B4613F1100224
:104D700000F0B28014218AB10846042903DDDFF86F
:104D80008481C3F81480082801DDC3F818E00C28DA
:104D900001DDC3F81CC0102800DD1E62132940F39A
:104DA0009E804FF0140C3AB10521397100217971C0
:104DB000B971F9717868186100216FF300016FF320
:104DC00041016FF382016FF3C501012363F3881181
:104DD0000CF47D7C6CF352216FF3DE416FF3DF71D5
:104DE0000023474812F022FEAD46E6696D4688B0C2
:104DF0006B4613F1100275D00C214AB10846042904
:104E000003DDDFF804C1C3F814C0082800DD9E618B
:104E10000B296ADD4FF00C0C3AB1032139710021E6
:104E20007971B971F9717868186100216FF3000127
:104E30006FF341016FF382016FF3C501012363F347
:104E400088110CF47B7C6CF352216FF3DE416FF31D
:104E5000DF7100232A4812F0E9FDAD46A46988B04D
:104E60006B4613F1100243D00C213AB108460429D5
:104E700001DD264D5D61082800DD9C610B293ADDCE
:104E80000C243AB10321397100217971B971F9719A
:104E90007868186100216FF300016FF341016FF32F
:104EA00082016FF3C501012363F3881104F47B745D
:104EB00064F352216FF3DE416FF3DF71002310487A
:104EC00012F0B4FD0837BD46BDE8F0816FF0004137
:104ED0000AE76FF01B0C1FE76FF000414BE76FF024
:104EE0001B0C60E76FF0004187E76FF01B0C93E746
:104EF0006FF00041B9E76FF01B04C2E79C1102009C
:104F0000A00A0200CC110200FC1102000C120200E7
:104F1000002807DB00F01F02400901239340024AEA
:104F200042F82030704700BF00E100E000280CDBB1
:104F300000F01F024009012393402030034A42F849
:104F40002030BFF34F8FBFF36F8F704700E100E059
:104F5000002808DB4901C9B200F1604000F561405A
:104F600080F80013704700F00F004901C9B2014BEF
:104F70001954704714ED00E04209054B53F8222004
:104F800000F01F00012303FA00F01040704700BF3B
:104F900000E100E030BFFFF7FDBF00BF08B50B4BDD
:104FA0000B4A22F07F029A60BFF34F8FBFF36F8FDF
:104FB000D3F8882022F47002C3F888200BF084FE16
:104FC0000CF02CFF00F07EFF0BF0DAFE00ED00E0AD
:104FD00000000000094A9368986709490968D96781
:104FE00008494B6843F080534B60002383F31188DA
:104FF000BFF36F8F9368D86F704700BF8C37002066
:105000002024020000ED00E00F498A684FF03000D4
:105010001044EFF3098C80E8F01F202080F3128801
:10502000BFF36F8F094F4FF00066CA698A603E6018
:10503000906F0023936780F3118802F1300090E8AD
:10504000F01F8CF3098870478C37002004ED00E0D6
:105050001EF0040F0CBFEFF30880EFF309808169A5
:1050600011F8021C0229FFD001B513F075FF01BD34
:1050700010B4A2F120040D4942F8081C21F00101EE
:1050800042F8081C42F8203C019B42F81C3C029B61
:1050900042F8183C039B42F8143C4FF0807342F8EE
:1050A000043C04650023836710BC7047BF670100A0
:1050B000074B9860104681F30988002163B681F39D
:1050C0001188BFF36F8F0022002311F078FB00BF1F
:1050D0008C37002001B572B60B4A906900281EBFBC
:1050E0000021916119F087FF62B6EFF30580A0F10E
:1050F00010004FEAC0000549014409C99847BDE8BE
:1051000001400349084700008C3700207408020062
:1051100015510000044B9968D869884203D00349AF
:105120004FF080520A6070478C37002004ED00E099
:1051300081690D4B5A6942F480725A61BFF34F8FF7
:10514000BFF36F8F31F8021C5A6922F480725A61E2
:10515000BFF34F8FBFF36F8F4DF60273994201D0AB
:10516000002070470120704700ED00E010B588B0C6
:1051700000241C7002F07F44B4F17F4F34D102F060
:105180000C04082C05D012F0080F2AD0084608B0ED
:1051900010BD164B079302238DF8043000248DF8C0
:1051A00005408DF806408DF80740019B0693214687
:1051B00064F3000164F3410164F3820164F3C50107
:1051C000012363F38811082363F3522164F3DE4162
:1051D00064F3DF71234606AA054812F027FC204637
:1051E000D5E701221A70D2E70020D0E73C12020076
:1051F000A00A02002DE9F041A6B000AF05460E4618
:105200001446AF4BFB6102233B7100237B71BB71E2
:10521000FB717A68BA61194663F3000163F34101D7
:1052200063F3820163F3C501012262F3881108224E
:1052300062F3522163F3DE4163F3DF7107F1180279
:10524000A04812F0F3FBA04B9B6A13F0100F35D16E
:105250009D4B9B6A13F0080F53D19B4B9B6A13F035
:10526000020F71D1984B9B6A13F0010F40F0E08060
:10527000954B9B6A13F0200F40F0FD80924B9B6A88
:1052800013F0100F01D1904B9B6A8F4B9B6A13F068
:10529000200F04D08C4A536A23F4005353628A4A85
:1052A000936A43F0FF0393620121284613F076FED0
:1052B000207000209837BD46BDE8F081834B7B63AA
:1052C00002233B7100237B71BB71FB717A683A63E7
:1052D000194663F3000163F3410163F3820163F351
:1052E000C501012262F38811082262F3522163F39F
:1052F000DE4163F3DF7107F13002724812F096FB72
:10530000A6E7734BFB6402233B7100237B71BB71E7
:10531000FB717A68BA64194663F3000163F34101D3
:1053200063F3820163F3C501012262F3881108224D
:1053300062F3522163F3DE4163F3DF7107F1480248
:10534000604812F073FB88E7624B7B6602233B7177
:1053500000237B71BB71FB717A683A66194663F36F
:10536000000163F3410163F3820163F3C50101228C
:1053700062F38811082262F3522163F3DE4163F382
:10538000DF7107F160024F4812F050FB4E4B586B33
:105390009B6A13F0800F3FF465AFE84688B06B4618
:1053A00013F1100211D00C2152B18C46042903DDF7
:1053B000DFF824E1C3F814E0BCF1080F08DD9861C0
:1053C0000B2932DD4FF00C0C04E06FF00041EBE7ED
:1053D0006FF01B0C3AB10321397100217971B97159
:1053E000F9717868186100216FF300016FF34101D2
:1053F0006FF382016FF3C501012363F388110CF48D
:105400007B7363F352216FF3DE416FF3DF7100238F
:105410002C4812F00BFBC546002E3FF423AF2A4A5E
:10542000936A23F0800393621CE76FF01B0CD1E7B3
:105430002A4BFB6702233B7100237B71BB71FB711D
:105440007A68BA67194663F3000163F3410163F3B5
:10545000820163F3C501012262F38811082262F31D
:10546000522163F3DE4163F3DF7107F178021548DF
:1054700012F0DCFAFCE61A4BC7F8943002233B71B9
:1054800000237B71BB71FB717A68C7F890201946C5
:1054900063F3000163F3410163F3820163F3C50128
:1054A000012262F38811082262F3522163F3DE4184
:1054B00063F3DF7107F19002024812F0B7FADDE6FC
:1054C00068120200A00A020000ED00E08012020053
:1054D000B4120200C8120200E0120200F812020028
:1054E000181302002DE9F041ACB000AF05460E469E
:1054F0001446BC4BFB6102233B7100237B71BB71E3
:10550000FB717A68BA61194663F3000163F34101E4
:1055100063F3820163F3C501012262F3881108225B
:1055200062F3522163F3DE4163F3DF7107F1180286
:10553000AD4812F07BFAAD4B9B6A13F4805F2AD121
:10554000AA4B9B6A13F4006F48D1A84B9B6A13F4D3
:10555000007F66D1A54B9B6A13F4806F40F0D58025
:10556000A24B9B6A13F4807F40F0F2809F4B9B6AB2
:1055700013F4005F40F011819C4A936A43F47F4327
:1055800093620121284613F009FD20700020B037F6
:10559000BD46BDE8F081964B7B6302233B7100233F
:1055A0007B71BB71FB717A683A63194663F3000142
:1055B00063F3410163F3820163F3C501012262F3E6
:1055C0008811082262F3522163F3DE4163F3DF7135
:1055D00007F13002844812F029FAB1E7854BFB64E9
:1055E00002233B7100237B71BB71FB717A68BA6443
:1055F000194663F3000163F3410163F3820163F32E
:10560000C501012262F38811082262F3522163F37B
:10561000DE4163F3DF7107F14802734812F006FAC6
:1056200093E7754B7B6602233B7100237B71BB7153
:10563000FB717A683A66194663F3000163F341012E
:1056400063F3820163F3C501012262F3881108222A
:1056500062F3522163F3DE4163F3DF7107F160020D
:10566000614812F0E3F9614B986B9B6A13F4004FA9
:105670003FF470AFE84688B06B4613F1100211D0CA
:105680000C2152B18C46042903DDDFF870E1C3F828
:1056900014E0BCF1080F08DD98610B2932DD4FF0F2
:1056A0000C0C04E06FF00041EBE76FF01B0C3AB11B
:1056B0000321397100217971B971F9717868186124
:1056C00000216FF300016FF341016FF382016FF36B
:1056D000C501012363F388110CF47B7363F352213A
:1056E0006FF3DE416FF3DF7100233F4812F09EF944
:1056F000C546002E3FF42EAF3C4A936A23F4004384
:10570000936227E76FF01B0CD1E73D4BFB67022349
:105710003B7100237B71BB71FB717A68BA671946D4
:1057200063F3000163F3410163F3820163F3C50195
:10573000012262F38811082262F3522163F3DE41F1
:1057400063F3DF7107F17802274812F06FF907E77A
:105750002C4BC7F8AC3002233B7100237B71BB712B
:10576000FB717A68C7F8A820194663F3000163F358
:10577000410163F3820163F3C501012262F38811E1
:10578000082262F3522163F3DE4163F3DF7107F114
:10579000A802154812F04AF9EEE61B4BC7F8943000
:1057A00002233B7100237B71BB71FB717A68C7F8E0
:1057B0009020194663F3000163F3410163F3820112
:1057C00063F3C501012262F38811082262F35221BA
:1057D00063F3DE4163F3DF7107F19002024812F0D8
:1057E00025F9C9E648130200A00A020000ED00E016
:1057F00060130200B412020074130200901302003E
:10580000A8130200C41302001813020000B5ADB0C3
:105810009A4B079302238DF8043000238DF805304E
:105820008DF806308DF80730019A0692194663F319
:10583000000163F3410163F3820163F3C5010122B7
:1058400062F38811082262F3522163F3DE4163F3AD
:10585000DF7106AA8A4812F0E9F88A4B9B6A13F0B6
:10586000007F26D1874B9B6A13F0807F47D1854B01
:105870009B6A13F4002F68D1824B9B6A13F4802F2C
:1058800040F089807F4B9B6A13F4003F40F0A98071
:105890007C4B9B6A13F4803F40F0C980794A936A3D
:1058A0006FEA03436FEA1343936200202DB05DF863
:1058B00004FB754B0D9302238DF8043000238DF803
:1058C00005308DF806308DF80730019A0C92194694
:1058D00063F3000163F3410163F3820163F3C501E4
:1058E000012262F38811082262F3522163F3DE4140
:1058F00063F3DF710CAA624812F098F8B2E7634BC9
:10590000139302238DF8043000238DF805308DF8B1
:1059100006308DF80730019A1292194663F30001A0
:1059200063F3410163F3820163F3C501012262F372
:105930008811082262F3522163F3DE4163F3DF71C1
:1059400012AA4F4812F072F891E7514B19930223B3
:105950008DF8043000238DF805308DF806308DF871
:105960000730019A1892194663F3000163F341016D
:1059700063F3820163F3C501012262F388110822F7
:1059800062F3522163F3DE4163F3DF7118AA3C48EE
:1059900012F04CF870E73F4B1F9302238DF8043050
:1059A00000238DF805308DF806308DF80730019A08
:1059B0001E92194663F3000163F3410163F3820110
:1059C00063F3C501012262F38811082262F35221B8
:1059D00063F3DE4163F3DF711EAA294812F026F853
:1059E00050E72D4B259302238DF8043000238DF8CA
:1059F00005308DF806308DF80730019A249219464B
:105A000063F3000163F3410163F3820163F3C501B2
:105A1000012262F38811082262F3522163F3DE410E
:105A200063F3DF7124AA164812F000F830E71B4B2D
:105A30002B9302238DF8043000238DF805308DF868
:105A400006308DF80730019A2A92194663F3000157
:105A500063F3410163F3820163F3C501012262F341
:105A60008811082262F3522163F3DE4163F3DF7190
:105A70002AAA034811F0DAFF10E700BFDC13020086
:105A8000A00A020000ED00E0F41302000814020076
:105A900024140200441402006C1402008814020052
:105AA000F0B59BB000AF06460D46854BFB61022367
:105AB0003B7100247C71BC71FC717B68BB61214629
:105AC00064F3000164F3410164F3820164F3C501EE
:105AD000012363F38811082363F3522164F3DE4149
